:100000000C942A000C943F000C943F000C943F0089
:100010000C943F000C943F000C943F000C943F0064
:100020000C943F000C943F000C943F000C943F0054
:100030000C943F000C943F000C943F000C943F0044
:100040000C943F000C943F000C943F000C943F0034
:100050000C943F0011241FBECFE5D8E0DEBFCDBF1A
:1000600011E0A0E6B0E0E8E2FBE402C005900D92EA
:10007000A43DB107D9F70E94C11F0C9492250C949E
:100080000000EF92FF920F931F937B018C0120E001
:1000900030E040E05FE40E94ED0388238CF0C8016B
:1000A000B70120E030E040E05FE40E94B9010E9427
:1000B000AB049B01AC01205030404040504806C08A
:1000C000C801B7010E94AB049B01AC01B901CA0190
:1000D0001F910F91FF90EF900895A0E0B0E0E3E74B
:1000E000F0E00C945B25DC012B01FA019C9192302D
:1000F00008F439C1EB018881823008F433C19430AF
:1001000069F4843009F02FC111969C91119789816F
:10011000981709F428C1ACECB0E025C1843009F48B
:1001200021C18230A9F4923009F01DC19A01AD01BC
:1001300088E0EA010990AE01E90109929E0181502F
:10014000C1F7E201898111969C918923818308C1BD
:10015000923009F407C112962D903C901397EB0151
:100160008A819B811496AD90BD90CD90DC901797BD
:10017000EC80FD800E811F819101281B390BB90194
:1001800037FF04C066277727621B730B6032710547
:100190000CF061C0121613066CF537014801062EEB
:1001A00004C096948794779467940A94D2F721E0D8
:1001B00030E040E050E004C0220F331F441F551FC1
:1001C0006A95D2F721503040404050402E213F21C7
:1001D00040235123211531054105510521F021E02E
:1001E00030E040E050E079018A01E628F72808294C
:1001F00019293CC0232BD1F1260E371E35014601AB
:10020000062E04C096948794779467940A94D2F744
:1002100021E030E040E050E004C0220F331F441FD3
:10022000551F6A95D2F721503040404050402A2156
:100230003B214C215D21211531054105510521F05E
:1002400021E030E040E050E059016A01A628B728DB
:10025000C828D9280BC0821593052CF01C01AA24AC
:10026000BB24650103C0EE24FF24870111969C91F5
:10027000D20111968C91981709F445C0992339F051
:10028000A80197012A193B094C095D0906C0A6017E
:1002900095012E193F09400B510B57FD08C01182E3
:1002A0003382228224833583468357831DC081E0B5
:1002B00081833382228288279927DC01821B930B5A
:1002C000A40BB50B84839583A683B7830DC0220F3F
:1002D000331F441F551F24833583468357838281F0
:1002E000938101979383828324813581468157814D
:1002F000DA01C9010197A109B1098F5F9F4FAF4F83
:10030000BF4328F30BC0918333822282EA0CFB1C8B
:100310000C1D1D1DE482F5820683178383E0808314
:10032000248135814681578157FF1AC0C901AA2708
:1003300097FDA095BA2F81709070A070B0705695FF
:10034000479537952795822B932BA42BB52B848328
:100350009583A683B7838281938101969383828359
:10036000DF0101C0D201CD01CDB7DEB7E2E10C94CF
:100370007725A0E2B0E0EFEBF1E00C94672569830C
:100380007A838B839C832D833E834F835887E9E058
:10039000EE2EF12CEC0EFD1ECE010196B7010E944F
:1003A0009C068E010F5E1F4FCE010596B8010E947C
:1003B0009C068A8991E089278A8BC701B801AE0122
:1003C000475E5F4F0E946D000E94C705A096E6E061
:1003D0000C948325A0E2B0E0E0EFF1E00C946725F7
:1003E00069837A838B839C832D833E834F835887D5
:1003F000F9E0EF2EF12CEC0EFD1ECE010196B701B7
:100400000E949C068E010F5E1F4FCE010596B8011B
:100410000E949C06C701B801AE01475E5F4F0E9473
:100420006D000E94C705A096E6E00C948325A0E22B
:10043000B0E0EDE1F2E00C945B2569837A838B8375
:100440009C832D833E834F835887CE010196BE0146
:10045000675F7F4F0E949C06CE010596BE016F5ECE
:100460007F4F0E949C069985923088F0898982305E
:10047000C8F0943019F4823051F404C0843029F467
:10048000923081F48CEC90E0C6C0923049F420E0C8
:100490009A858A89981321E02A87CE010996BBC0E4
:1004A000823049F420E09A858A89981321E02A8BCA
:1004B000CE014196B0C02D843E844F8458886D880B
:1004C0007E888F88988CEE24FF248701AA24BB2481
:1004D000650140E050E060E070E0E0E0F0E0C10184
:1004E00081709070892BE9F0E60CF71C081D191D2E
:1004F0009A01AB012A0D3B1D4C1D5D1D80E090E073
:10050000A0E0B0E0E614F7040805190520F481E046
:1005100090E0A0E0B0E0BA01A901480F591F6A1F9E
:100520007B1FAA0CBB1CCC1CDD1C97FE08C081E005
:1005300090E0A0E0B0E0A82AB92ACA2ADB2A3196C6
:10054000E032F10549F0660C771C881C991C569422
:10055000479437942794C3CFFA85EA892B893C893D
:100560008B859C85280F391F2E5F3F4F17C0CA010E
:1005700081709070892B61F016950795F794E79438
:1005800080E090E0A0E0B0E8E82AF92A0A2B1B2BD3
:1005900076956795579547952F5F3F4F77FDE7CF46
:1005A0000CC0440F551F661F771F17FD4160EE0CEE
:1005B000FF1C001F111F21503040403090E05907B0
:1005C00090E0690790E4790760F32B8F3C8FDB01A3
:1005D000CA018F779070A070B07080349105A1052A
:1005E000B10561F447FD0AC0E114F10401051105EC
:1005F00029F0405C5F4F6F4F7F4F40781A8EFE1797
:1006000011F081E08A8F4D8F5E8F6F8F78A383E02A
:10061000898FCE0149960E94C705A096E2E10C940D
:100620007725A8E1B0E0E7E1F3E00C946325698366
:100630007A838B839C832D833E834F835887B9E0D5
:10064000EB2EF12CEC0EFD1ECE010196B7010E949F
:100650009C068E010F5E1F4FCE010596B8010E94C9
:100660009C062985223008F47EC03989323010F486
:10067000B8017CC08A859A8989278A87243011F03D
:10068000223031F4231709F06EC06CEC70E06EC0BC
:10069000343039F41D861E861F86188A1C861B86F8
:1006A00004C0323021F484E08987B7015FC02B8514
:1006B0003C858B899C89281B390B3C872B87ED84D3
:1006C000FE840F851889AD88BE88CF88D88CEA143F
:1006D000FB040C051D0540F4EE0CFF1C001F111F50
:1006E000215030403C872B8720E030E040E050E054
:1006F00080E090E0A0E0B0E460E070E0EA14FB0489
:100700000C051D0540F0282B392B4A2B5B2BEA18D2
:10071000FB080C091D09B695A79597958795EE0CD2
:10072000FF1C001F111F6F5F7F4F6F31710531F785
:10073000DA01C9018F779070A070B0708034910594
:10074000A105B10561F427FD0AC0E114F10401051A
:10075000110529F0205C3F4F4F4F5F4F20782D87C8
:100760003E874F87588BBE01675F7F4FCB010E944A
:10077000C7056896EAE00C947F25A8E1B0E0E3ECB9
:10078000F3E00C94672569837A838B839C832D83A4
:100790003E834F83588789E0E82EF12CEC0EFD1E36
:1007A000CE010196B7010E949C068E010F5E1F4F7D
:1007B000CE010596B8010E949C068985823040F0E2
:1007C0008989823028F0C701B8010E94140701C04E
:1007D0008FEF6896E6E00C948325A8E1B0E0E3EFA4
:1007E000F3E00C94672569837A838B839C832D8344
:1007F0003E834F83588789E0E82EF12CEC0EFD1ED6
:10080000CE010196B7010E949C068E010F5E1F4F1C
:10081000CE010596B8010E949C068985823040F081
:100820008989823028F0C701B8010E94140701C0ED
:100830008FEF6896E6E00C948325A8E1B0E0E3E250
:10084000F4E00C94672569837A838B839C832D83E2
:100850003E834F83588789E0E82EF12CEC0EFD1E75
:10086000CE010196B7010E949C068E010F5E1F4FBC
:10087000CE010596B8010E949C068985823040F021
:100880008989823028F0C701B8010E94140701C08D
:1008900081E06896E6E00C948325A8E0B0E0E3E50B
:1008A000F4E00C9464259B01AC0183E08983DA01B8
:1008B000C9018827B7FD83959927AA27BB27B82E9A
:1008C000211531054105510519F482E089833AC0AB
:1008D0008823A9F0203080E0380780E0480780E8CE
:1008E000580729F460E070E080E09FEC30C0EE240F
:1008F000FF248701E21AF30A040B150B02C07901E9
:100900008A018EE1C82ED12CDC82CB82ED82FE8260
:100910000F831887C801B7010E9478050197181640
:10092000190684F4082E04C0EE0CFF1C001F111FD2
:100930000A94D2F7ED82FE820F831887C81AD90A6B
:10094000DC82CB82BA82CE0101960E94C70528962E
:10095000E9E00C948025ACE0B0E0E1EBF4E00C942D
:100960006B2569837A838B839C83CE010196BE01BC
:100970006B5F7F4F0E949C068D81823061F18230D7
:1009800050F1843021F48E81882351F12EC02F81C3
:10099000388537FD20C06E812F3131051CF066236C
:1009A000F9F023C08EE190E0821B930B29853A85F4
:1009B0004B855C8504C056954795379527958A9554
:1009C000D2F76623B1F050954095309521953F4F71
:1009D0004F4F5F4F0EC020E030E040E050E009C0D4
:1009E0002FEF3FEF4FEF5FE704C020E030E040E043
:1009F00050E8B901CA012C96E2E00C948725A8E0E2
:100A0000B0E0E5E0F5E00C9463257B018C01611515
:100A100071058105910519F482E0898360C083E046
:100A200089838EE1C82ED12CDC82CB82ED82FE82BE
:100A30000F831887C801B7010E947805FC01319720
:100A4000F7FF3BC0222733272E1B3F0B57016801BE
:100A5000022E04C0D694C794B794A7940A94D2F7F0
:100A600040E050E060E070E081E090E0A0E0B0E0C5
:100A700004C0880F991FAA1FBB1F2A95D2F70197A0
:100A8000A109B1098E219F21A023B1230097A105BF
:100A9000B10521F041E050E060E070E04A295B29B7
:100AA0006C297D294D835E836F8378878EE190E08A
:100AB0008E1B9F0B9C838B8312C0309781F00E2E70
:100AC00004C0EE0CFF1C001F111F0A94D2F7ED8228
:100AD000FE820F831887CE1ADF0ADC82CB821A824D
:100AE000CE0101960E94C7052896EAE00C947F2566
:100AF000EF92FF920F931F937B018C0180E0E81629
:100B000080E0F80681E0080780E0180788F48FEF9E
:100B1000E816F1040105110531F028F088E090E0B5
:100B2000A0E0B0E017C080E090E0A0E0B0E012C02C
:100B300080E0E81680E0F80680E0080781E018070A
:100B400028F088E190E0A0E0B0E004C080E190E00F
:100B5000A0E0B0E020E230E040E050E0281B390B9C
:100B60004A0B5B0B04C016950795F794E7948A959A
:100B7000D2F7F701EC52FF4F8081281B3109410960
:100B80005109C9011F910F91FF90EF900895DF92D5
:100B9000EF92FF920F931F93FC01E480F580068192
:100BA0001781D1808081823048F480E090E0A0E11C
:100BB000B0E0E82AF92A0A2B1B2BA5C0843009F4DF
:100BC0009FC0823021F4EE24FF24870105C0E11488
:100BD000F1040105110519F4E0E0F0E096C062812E
:100BE00073819FEF623879070CF05BC022E83FEF1A
:100BF000261B370B2A3131052CF020E030E040E095
:100C000050E02AC0B801A701022E04C0769567956E
:100C1000579547950A94D2F781E090E0A0E0B0E0C4
:100C200004C0880F991FAA1FBB1F2A95D2F70197EE
:100C3000A109B1098E219F21A023B1230097A1050D
:100C4000B10521F081E090E0A0E0B0E09A01AB01B5
:100C5000282B392B4A2B5B2BDA01C9018F77907037
:100C6000A070B07080349105A105B10539F427FF5B
:100C700009C0205C3F4F4F4F5F4F04C0215C3F4F86
:100C80004F4F5F4FE0E0F0E02030A0E03A07A0E0F7
:100C90004A07A0E45A0710F0E1E0F0E079018A0188
:100CA00027C06038710564F5FB01E158FF4FD8019A
:100CB000C7018F779070A070B07080349105A10546
:100CC000B10539F4E7FE0DC080E490E0A0E0B0E0AB
:100CD00004C08FE390E0A0E0B0E0E80EF91E0A1F28
:100CE0001B1F17FF05C016950795F794E7943196DB
:100CF00087E016950795F794E7948A95D1F705C094
:100D0000EE24FF248701EFEFF0E06E2F6795662752
:100D10006795902F9F77D794DD24D7948E2F869553
:100D2000492F462B582F5D29B701CA011F910F91FA
:100D3000FF90EF90DF900895FC01DB01408151812D
:100D40002281622F6F7770E0221F2227221F93815A
:100D5000892F880F822B282F30E0991F9927991F00
:100D600011969C93119721153105A9F5411551054F
:100D70006105710511F482E037C082E89FEF139698
:100D80009C938E9312979A01AB0167E0220F331F59
:100D9000441F551F6A95D1F783E08C930DC0220F35
:100DA000331F441F551F12968D919C9113970197E5
:100DB00013969C938E931297203080E0380780E042
:100DC000480780E4580758F314962D933D934D93AC
:100DD0005C93179708952F3F310579F4411551051C
:100DE0006105710519F484E08C93089564FF03C0D4
:100DF00081E08C9312C01C9210C02F573040139684
:100E00003C932E93129783E08C9387E0440F551FF9
:100E1000661F771F8A95D1F7706414964D935D9382
:100E20006D937C93179708951F93DC01FB019C91B0
:100E3000923008F447C08081823008F443C0943077
:100E400051F411961C91843099F58181682F70E0DE
:100E5000611B71093FC0843021F0923031F482303F
:100E6000B9F18181882389F12DC011961C911197C8
:100E70008230F1F081811817D9F412962D913C91AE
:100E80001397828193818217930794F0281739076B
:100E9000BCF014968D919D910D90BC91A02D248154
:100EA000358146815781281739074A075B0718F4AF
:100EB000112341F00AC082179307A407B50740F435
:100EC000112319F061E070E005C06FEF7FEF02C001
:100ED00060E070E0CB011F910895DF93CF9300D0C5
:100EE00000D000D0CDB7DEB78B836C838B81869525
:100EF000869586958A838B81877089838A81282F3E
:100F000030E03E832D838D819E818130910509F4EF
:100F100043C02D813E81223031052CF48D819E818C
:100F2000009771F0BCC02D813E812230310509F45B
:100F30005FC08D819E818330910509F485C0AFC06B
:100F40008C818130A1F4AAE3B0E0EAE3F0E0808193
:100F5000482F8981282F30E081E090E0022E02C0E6
:100F6000880F991F0A94E2F7842B8C9398C0AAE308
:100F7000B0E0EAE3F0E08081482F8981282F30E05B
:100F800081E090E0022E02C0880F991F0A94E2F7D8
:100F9000809584238C9383C08C818130A1F4A7E356
:100FA000B0E0E7E3F0E08081482F8981282F30E02E
:100FB00081E090E0022E02C0880F991F0A94E2F7A8
:100FC000842B8C936CC0A7E3B0E0E7E3F0E0808172
:100FD000482F8981282F30E081E090E0022E02C066
:100FE000880F991F0A94E2F7809584238C9357C049
:100FF0008C818130A1F4A4E3B0E0E4E3F0E08081EF
:10100000482F8981282F30E081E090E0022E02C035
:10101000880F991F0A94E2F7842B8C9340C0A4E3B5
:10102000B0E0E4E3F0E08081482F8981282F30E0B0
:1010300081E090E0022E02C0880F991F0A94E2F727
:10104000809584238C932BC08C818130A1F4A1E303
:10105000B0E0E1E3F0E08081482F8981282F30E083
:1010600081E090E0022E02C0880F991F0A94E2F7F7
:10107000842B8C9314C0A1E3B0E0E1E3F0E0808125
:10108000482F8981282F30E081E090E0022E02C0B5
:10109000880F991F0A94E2F7809584238C932696F3
:1010A0000FB6F894DEBF0FBECDBFCF91DF9108958C
:1010B000DF93CF9300D000D000D0CDB7DEB78B83C5
:1010C0006C838B818695869586958A838B818770C4
:1010D00089838A81282F30E03E832D838D819E81F4
:1010E0008130910509F443C02D813E8122303105C4
:1010F0002CF48D819E81009771F0BCC02D813E81C2
:101100002230310509F45FC08D819E8183309105C5
:1011100009F485C0AFC08C818130A1F4ABE3B0E0AD
:10112000EBE3F0E08081482F8981282F30E081E0D7
:1011300090E0022E02C0880F991F0A94E2F7842BD8
:101140008C9398C0ABE3B0E0EBE3F0E08081482FF4
:101150008981282F30E081E090E0022E02C0880FC4
:10116000991F0A94E2F7809584238C9383C08C8125
:101170008130A1F4A8E3B0E0E8E3F0E08081482FFB
:101180008981282F30E081E090E0022E02C0880F94
:10119000991F0A94E2F7842B8C936CC0A8E3B0E00B
:1011A000E8E3F0E08081482F8981282F30E081E05A
:1011B00090E0022E02C0880F991F0A94E2F78095F2
:1011C00084238C9357C08C818130A1F4A5E3B0E0D7
:1011D000E5E3F0E08081482F8981282F30E081E02D
:1011E00090E0022E02C0880F991F0A94E2F7842B28
:1011F0008C9340C0A5E3B0E0E5E3F0E08081482FA8
:101200008981282F30E081E090E0022E02C0880F13
:10121000991F0A94E2F7809584238C932BC08C81CC
:101220008130A1F4A2E3B0E0E2E3F0E08081482F56
:101230008981282F30E081E090E0022E02C0880FE3
:10124000991F0A94E2F7842B8C9314C0A2E3B0E0B8
:10125000E2E3F0E08081482F8981282F30E081E0AF
:1012600090E0022E02C0880F991F0A94E2F7809541
:1012700084238C9326960FB6F894DEBF0FBECDBFA5
:10128000CF91DF910895DF93CF93CDB7DEB7E4E33D
:10129000F0E08FE08083E5E3F0E08FEF8083CF9193
:1012A000DF910895DF93CF93CDB7DEB72A970FB6BE
:1012B000F894DEBF0FBECDBFA5E3B0E0E5E3F0E0FC
:1012C00080818E7F8C93A5E3B0E0E5E3F0E0808140
:1012D00082608C93A5E3B0E0E5E3F0E08081846078
:1012E0008C93A5E3B0E0E5E3F0E0808188608C9327
:1012F000E3E3F0E08081807F89838981282F30E0DB
:101300003A87298789859A85803B9105D9F0298577
:101310003A85213B310534F489859A8580379105DA
:10132000A1F016C029853A85203D310541F0898517
:101330009A85803E910561F491E09887C4C022E0CF
:101340002887C1C033E03887BEC08BE28887BBC026
:10135000A5E3B0E0E5E3F0E0808181608C93A5E354
:10136000B0E0E5E3F0E080818D7F8C93E3E3F0E093
:101370008081807F89838981282F30E03F832E837D
:101380008E819F81803B9105D9F02E813F81213B49
:10139000310534F48E819F8180379105A1F016C00C
:1013A0002E813F81203D310541F08E819F81803E1D
:1013B000910561F494E0988786C025E0288783C072
:1013C00036E0388780C08DE288877DC0A5E3B0E035
:1013D000E5E3F0E0808182608C93A5E3B0E0E5E393
:1013E000F0E080818B7F8C93E3E3F0E08081807F6D
:1013F00089838981282F30E03D832C838C819D81D6
:10140000803B9105D9F02C813D81213B310534F49D
:101410008C819D8180379105A1F016C02C813D8182
:10142000203D310541F08C819D81803E910561F424
:1014300097E0988748C028E0288745C039E038877A
:1014400042C08AE288873FC0A5E3B0E0E5E3F0E070
:10145000808184608C93A5E3B0E0E5E3F0E08081D7
:10146000877F8C93E3E3F0E08081807F89838981AB
:10147000282F30E03B832A838A819B81803B910522
:10148000D1F02A813B81213B310534F48A819B8153
:101490008037910599F015C02A813B81203D3105A7
:1014A00041F08A819B81803E910559F493E29887AF
:1014B0000AC0188608C02DE3288705C03FE2388798
:1014C00002C08FEF888788852A960FB6F894DEBF12
:1014D0000FBECDBFCF91DF910895DF93CF93CDB7EE
:1014E000DEB760970FB6F894DEBF0FBECDBF188A87
:1014F0008BC00E9452098F878F858F3FD1F780E084
:1015000090E0A8E4B2E48B879C87AD87BE876B85AB
:101510007C858D859E8520E030E04AEF54E40E9472
:101520001702DC01CB018F839887A987BA876F8167
:10153000788589859A8520E030E040E85FE30E9465
:101540001D0488232CF481E090E09E838D833FC0AE
:101550006F81788589859A8520E03FEF4FE757E4D2
:101560000E94BD0318164CF56B857C858D859E8584
:1015700020E030E040E251E40E941702DC01CB01A0
:10158000BC01CD010E944100DC01CB019E838D8313
:101590000FC088EC90E09C838B838B819C810197AA
:1015A000F1F79C838B838D819E8101979E838D8330
:1015B0008D819E81009769F718C06F817885898534
:1015C0009A850E944100DC01CB019E838D838D8131
:1015D0009E819A83898389819A810197F1F79A8301
:1015E000898303C00E9452098F878F858F3FD1F76F
:1015F0000E9452098F878F858A3018F08F85833239
:1016000019F488898F5F888B8889882309F474CFBF
:101610008F8560960FB6F894DEBF0FBECDBFCF9119
:10162000DF910895DF93CF93CDB7DEB72F970FB635
:10163000F894DEBF0FBECDBF8F8785E060E00E94CB
:10164000580886E060E00E9458088F85982F9170B6
:1016500088E1692F0E9458088F858695982F917090
:1016600089E1692F0E9458088F8586958695982F65
:1016700091708AE1692F0E9458088F85869586951A
:101680008695982F91708BE1692F0E9458088F855D
:1016900082958F70982F91708CE1692F0E94580865
:1016A0008F85829586958770982F91708DE1692F2F
:1016B0000E9458088F858295869586958370982F0D
:1016C00091708EE1692F0E9458088F85982F991F7D
:1016D0009927991F8FE1692F0E94580887E061E0E0
:1016E0000E94580880E090E0A0E0B0E48B879C87DF
:1016F000AD87BE876B857C858D859E8520E030E03B
:101700004AEF54E40E941702DC01CB018F839887D3
:10171000A987BA876F81788589859A8520E030E02E
:1017200040E85FE30E941D0488232CF481E090E0F0
:101730009E838D833FC06F81788589859A8520E05F
:101740003FEF4FE757E40E94BD0318164CF56B8539
:101750007C858D859E8520E030E040E251E40E944A
:101760001702DC01CB01BC01CD010E944100DC016C
:10177000CB019E838D830FC088EC90E09C838B838C
:101780008B819C810197F1F79C838B838D819E8156
:1017900001979E838D838D819E81009769F714C088
:1017A0006F81788589859A850E944100DC01CB0193
:1017B0009E838D838D819E819A83898389819A817D
:1017C0000197F1F79A83898387E060E00E945808C7
:1017D0002F960FB6F894DEBF0FBECDBFCF91DF912D
:1017E0000895DF93CF93CDB7DEB72F970FB6F89458
:1017F000DEBF0FBECDBF8F8785E061E00E94580835
:1018000086E060E00E9458088F85982F917088E1EB
:10181000692F0E9458088F858695982F917089E1CD
:10182000692F0E9458088F8586958695982F91700C
:101830008AE1692F0E9458088F858695869586953E
:10184000982F91708BE1692F0E9458088F8582959F
:101850008F70982F91708CE1692F0E9458088F85A6
:10186000829586958770982F91708DE1692F0E94DF
:1018700058088F858295869586958370982F9170EC
:101880008EE1692F0E9458088F85982F991F9927FC
:10189000991F8FE1692F0E94580887E061E00E943C
:1018A000580880E090E0A0E0B0E48B879C87AD878B
:1018B000BE876B857C858D859E8520E030E04AEF74
:1018C00054E40E941702DC01CB018F839887A9871B
:1018D000BA876F81788589859A8520E030E040E875
:1018E0005FE30E941D0488232CF481E090E09E8336
:1018F0008D833FC06F81788589859A8520E03FEF91
:101900004FE757E40E94BD0318164CF56B857C85A4
:101910008D859E8520E030E040E251E40E94170270
:10192000DC01CB01BC01CD010E944100DC01CB01F7
:101930009E838D830FC088EC90E09C838B838B818A
:101940009C810197F1F79C838B838D819E81019708
:101950009E838D838D819E81009769F714C06F816E
:10196000788589859A850E944100DC01CB019E83A0
:101970008D838D819E819A83898389819A81019744
:10198000F1F79A83898387E060E00E9458082F96D8
:101990000FB6F894DEBF0FBECDBFCF91DF91089593
:1019A000DF93CF93CDB7DEB7AA970FB6F894DEBF1B
:1019B0000FBECDBF85E061E00E946D0786E061E06B
:1019C0000E946D0787E061E00E946D0788E161E099
:1019D0000E946D0789E161E00E946D078AE161E084
:1019E0000E946D078BE161E00E946D078CE161E070
:1019F0000E946D078DE161E00E946D078EE161E05C
:101A00000E946D078FE161E00E946D0788E30E94EC
:101A1000120B80E090E0A0E0B0E48FA398A7A9A704
:101A2000BAA76FA178A589A59AA520E030E04AEF72
:101A300054E40E941702DC01CB018BA39CA3ADA34D
:101A4000BEA36BA17CA18DA19EA120E030E040E867
:101A50005FE30E941D0488232CF481E090E09AA3A8
:101A600089A33FC06BA17CA18DA19EA120E03FEF87
:101A70004FE757E40E94BD0318164CF56FA178A5F7
:101A800089A59AA520E030E040E251E40E941702C7
:101A9000DC01CB01BC01CD010E944100DC01CB0186
:101AA0009AA389A30FC088EC90E098A38F8F8F8DA5
:101AB00098A10197F1F798A38F8F89A19AA1019717
:101AC0009AA389A389A19AA1009769F714C06BA171
:101AD0007CA18DA19EA10E944100DC01CB019AA3B3
:101AE00089A389A19AA19E8F8D8F8D8D9E8D01973F
:101AF000F1F79E8F8D8F8CE00E94120B80E090E0BA
:101B0000A0E0B0E4898F9A8FAB8FBC8F698D7A8DFE
:101B10008B8D9C8D20E030E04AEF54E40E94170248
:101B2000DC01CB018D8B9E8BAF8BB88F6D897E894D
:101B30008F89988D20E030E040E85FE30E941D042B
:101B400088232CF481E090E09C8B8B8B3FC06D89C7
:101B50007E898F89988D20E03FEF4FE757E40E9400
:101B6000BD0318164CF5698D7A8D8B8D9C8D20E008
:101B700030E040E251E40E941702DC01CB01BC01DD
:101B8000CD010E944100DC01CB019C8B8B8B0FC0EF
:101B900088EC90E09A8B898B89899A890197F1F773
:101BA0009A8B898B8B899C8901979C8B8B8B8B89DA
:101BB0009C89009769F714C06D897E898F89988DFB
:101BC0000E944100DC01CB019C8B8B8B8B899C8913
:101BD000988B8F878F8598890197F1F7988B8F87DE
:101BE00081E00E94120B80E090E0A0E0B0E48B87DF
:101BF0009C87AD87BE876B857C858D859E8520E023
:101C000030E04AEF54E40E941702DC01CB018F83DD
:101C10009887A987BA876F81788589859A8520E01A
:101C200030E040E85FE30E941D0488232CF481E04B
:101C300090E09E838D833FC06F81788589859A85EA
:101C400020E03FEF4FE757E40E94BD0318164CF524
:101C50006B857C858D859E8520E030E040E251E4F7
:101C60000E941702DC01CB01BC01CD010E944100A2
:101C7000DC01CB019E838D830FC088EC90E09C83B8
:101C80008B838B819C810197F1F79C838B838D8162
:101C90009E8101979E838D838D819E81009769F738
:101CA00014C06F81788589859A850E944100DC0186
:101CB000CB019E838D838D819E819A8389838981C7
:101CC0009A810197F1F79A838983AA960FB6F894BF
:101CD000DEBF0FBECDBFCF91DF910895EF92FF928F
:101CE0000F931F93DF93CF93CDB7DEB7C456D04089
:101CF0000FB6F894DEBF0FBECDBFFE01ED59FF4F0A
:101D000091838083FE01EF59FF4F11821082CDC372
:101D100080E061E00E94580881E060E00E9458087D
:101D200082E060E00E94580883E060E00E9458086A
:101D3000FE01E35AFF4F80E090E8A2EAB4E480831A
:101D40009183A283B3838E01075A1F4FFE01E35A8A
:101D5000FF4F60817181828193812BEA3AEA4AE2E6
:101D600050E40E941702DC01CB01F80180839183CB
:101D7000A283B383FE01E75AFF4F608171818281A4
:101D8000938120E030E040E85FE30E941D04882357
:101D900034F4FE01E85AFF4F81E08083E0C0FE0189
:101DA000E75AFF4F608171818281938120E030E0AA
:101DB0004FE753E40E94BD0318160CF0C0C0FE01AB
:101DC000E35AFF4F608171818281938120E030E08E
:101DD0004AE754E40E941103DC01CB01FE01EC5AF6
:101DE000FF4F80839183A283B3838E01005B1F4FDB
:101DF000FE01EC5AFF4F608171818281938120E066
:101E000030E04AEF54E40E941702DC01CB01F801F4
:101E100080839183A283B383FE01E05BFF4F6081E7
:101E200071818281938120E030E040E85FE30E948D
:101E30001D04882344F4FE01E25BFF4F81E090E043
:101E40009183808364C0FE01E05BFF4F60817181FC
:101E50008281938120E03FEF4FE757E40E94BD036A
:101E600018160CF043C0FE01EC5AFF4F60817181DF
:101E70008281938120E030E040E251E40E94170229
:101E8000DC01CB018E01025B1F4FBC01CD010E9422
:101E90004100DC01CB01F801918380831FC0FE016A
:101EA000E45BFF4F88EC90E091838083FE01E45B6C
:101EB000FF4F808191810197F1F7FE01E45BFF4FB5
:101EC00091838083DE01A25BBF4FFE01E25BFF4F87
:101ED00080819181019711969C938E93FE01E25B24
:101EE000FF4F808191810097D1F64BC08E01025B3C
:101EF0001F4FFE01E05BFF4F608171818281938102
:101F00000E944100DC01CB01F80191838083DE0156
:101F1000A65BBF4FFE01E25BFF4F8081918111966E
:101F20009C938E93FE01E65BFF4F80819181019728
:101F3000F1F7FE01E65BFF4F9183808322C08E01A3
:101F4000085A1F4FFE01E75AFF4F6081718182815D
:101F500093810E944100DC01CB01F8018083DE0106
:101F6000A75BBF4FFE01E85AFF4F80818C93FE01B3
:101F7000E75BFF4F80818A95F1F7FE01E75BFF4F3A
:101F8000808380E060E00E94580881E061E00E9468
:101F9000580882E060E00E94580883E060E00E94F8
:101FA0005808FE01EB5BFF4F80E090E8A2EAB4E442
:101FB00080839183A283B3838E010F5B1F4FFE0149
:101FC000EB5BFF4F60817181828193812BEA3AEA5A
:101FD0004AE250E40E941702DC01CB01F801808341
:101FE0009183A283B383FE01EF5BFF4F6081718118
:101FF0008281938120E030E040E85FE30E941D048D
:10200000882334F481E0FE01E05CFF4F80839DC0B3
:10201000FE01EF5BFF4F608171818281938120E03F
:1020200030E04FE753E40E94BD0318160CF07EC069
:10203000FE01EB5BFF4F608171818281938120E023
:1020400030E04AE754E40E941103DC01CB018CAF7D
:102050009DAFAEAFBFAF6CAD7DAD8EAD9FAD20E09F
:1020600030E04AEF54E40E941702DC01CB0188AF54
:1020700099AFAAAFBBAF68AD79AD8AAD9BAD20E09B
:1020800030E040E85FE30E941D0488232CF481E0E7
:1020900090E09FAB8EAB3FC068AD79AD8AAD9BAD94
:1020A00020E03FEF4FE757E40E94BD0318164CF5C0
:1020B0006CAD7DAD8EAD9FAD20E030E040E251E4EF
:1020C0000E941702DC01CB01BC01CD010E9441003E
:1020D000DC01CB019FAB8EAB0FC088EC90E09DABD9
:1020E0008CAB8CA99DA90197F1F79DAB8CAB8EA908
:1020F0009FA901979FAB8EAB8EA99FA9009769F707
:102100002DC068AD79AD8AAD9BAD0E944100DC0168
:10211000CB019FAB8EAB8EA99FA99BAB8AAB8AA943
:102120009BA90197F1F79BAB8AAB18C0FE01EF5B4F
:10213000FF4F60817181828193810E944100DC01A7
:10214000CB01FE01E05CFF4F8083FE01E05CFF4FAE
:10215000808189AB89A98A95F1F789AB80E060E03D
:102160000E94580881E060E00E94580882E061E027
:102170000E94580883E060E00E94580880E090E8E0
:10218000A2EAB4E48DA79EA7AFA7B8AB6DA57EA5C4
:102190008FA598A92BEA3AEA4AE250E40E94170276
:1021A000DC01CB0189A79AA7ABA7BCA769A57AA533
:1021B0008BA59CA520E030E040E85FE30E941D0471
:1021C00088231CF481E088A791C069A57AA58BA516
:1021D0009CA520E030E04FE753E40E94BD031816B1
:1021E0000CF07BC06DA57EA58FA598A920E030E0FE
:1021F0004AE754E40E941103DC01CB018CA39DA3A8
:10220000AEA3BFA36CA17DA18EA19FA120E030E071
:102210004AEF54E40E941702DC01CB0188A399A382
:10222000AAA3BBA368A179A18AA19BA120E030E069
:1022300040E85FE30E941D0488232CF481E090E0D5
:102240009F8F8E8F3FC068A179A18AA19BA120E0BA
:102250003FEF4FE757E40E94BD0318164CF56CA101
:102260007DA18EA19FA120E030E040E251E40E94D8
:102270001702DC01CB01BC01CD010E944100DC0151
:10228000CB019F8F8E8F0FC088EC90E09D8F8C8F3D
:102290008C8D9D8D0197F1F79D8F8C8F8E8D9F8DED
:1022A00001979F8F8E8F8E8D9F8D009769F724C029
:1022B00068A179A18AA19BA10E944100DC01CB0108
:1022C0009F8F8E8F8E8D9F8D9B8F8A8F8A8D9B8DFA
:1022D0000197F1F79B8F8A8F0FC069A57AA58BA50F
:1022E0009CA50E944100DC01CB0188A788A5898FAD
:1022F000898D8A95F1F7898F80E060E00E94580807
:1023000081E060E00E94580882E060E00E94580886
:1023100083E061E00E94580880E090E8A2EAB4E41B
:102320008D8B9E8BAF8BB88F6D897E898F89988DB1
:102330002BEA3AEA4AE250E40E941702DC01CB01A0
:10234000898B9A8BAB8BBC8B69897A898B899C89A9
:1023500020E030E040E85FE30E941D0488231CF485
:1023600081E0888B91C069897A898B899C8920E07A
:1023700030E04FE753E40E94BD0318160CF07BC019
:102380006D897E898F89988D20E030E04AE754E49A
:102390000E941103DC01CB018C879D87AE87BF872C
:1023A0006C857D858E859F8520E030E04AEF54E482
:1023B0000E941702DC01CB0188879987AA87BB8717
:1023C000688579858A859B8520E030E040E85FE379
:1023D0000E941D0488232CF481E090E09F838E836B
:1023E0003FC0688579858A859B8520E03FEF4FE770
:1023F00057E40E94BD0318164CF56C857D858E85CB
:102400009F8520E030E040E251E40E941702DC01A9
:10241000CB01BC01CD010E944100DC01CB019F83B7
:102420008E830FC088EC90E09D838C838C819D818E
:102430000197F1F79D838C838E819F8101979F8304
:102440008E838E819F81009769F724C06885798586
:102450008A859B850E944100DC01CB019F838E838E
:102460008E819F819B838A838A819B810197F1F76B
:102470009B838A830FC069897A898B899C890E9492
:102480004100DC01CB01888B8889898389818A9509
:10249000F1F78983DE01AF59BF4FFE01EF59FF4FBE
:1024A0008081918101968D939C93FE01EF59FF4F9E
:1024B00080819181CC01A0E0B0E0BC01CD010E94FF
:1024C000FF047B018C01FE01ED59FF4F808191815A
:1024D000CC01A0E0B0E0BC01CD010E94FF04DC0112
:1024E000CB01BC01CD012FE832EC45EB5FE30E944C
:1024F0001702DC01CB019C01AD01C801B7010E94AC
:102500001D0488230CF404CCCC59DF4F0FB6F8948B
:10251000DEBF0FBECDBFCF91DF911F910F91FF9016
:10252000EF900895EF92FF920F931F93DF93CF9355
:10253000CDB7DEB7C456D0400FB6F894DEBF0FBE9D
:10254000CDBFFE01ED59FF4F91838083FE01EF590E
:10255000FF4F11821082CDC380E060E00E945808D6
:1025600081E060E00E94580882E060E00E94580824
:1025700083E061E00E945808FE01E35AFF4F80E0CB
:1025800090E8A2EAB4E480839183A283B3838E01AE
:10259000075A1F4FFE01E35AFF4F6081718182810C
:1025A00093812BEA3AEA4AE250E40E941702DC01E6
:1025B000CB01F80180839183A283B383FE01E75AA4
:1025C000FF4F608171818281938120E030E040E89B
:1025D0005FE30E941D04882334F4FE01E85AFF4F94
:1025E00081E08083E0C0FE01E75AFF4F6081718186
:1025F0008281938120E030E04FE753E40E94BD03E5
:1026000018160CF0C0C0FE01E35AFF4F60817181C3
:102610008281938120E030E04AE754E40E94110374
:10262000DC01CB01FE01EC5AFF4F80839183A28332
:10263000B3838E01005B1F4FFE01EC5AFF4F608198
:1026400071818281938120E030E04AEF54E40E945E
:102650001702DC01CB01F80180839183A283B3834D
:10266000FE01E05BFF4F608171818281938120E0F8
:1026700030E040E85FE30E941D04882344F4FE013B
:10268000E25BFF4F81E090E09183808364C0FE01B4
:10269000E05BFF4F608171818281938120E03FEF99
:1026A0004FE757E40E94BD0318160CF043C0FE012B
:1026B000EC5AFF4F608171818281938120E030E08C
:1026C00040E251E40E941702DC01CB018E01025B63
:1026D0001F4FBC01CD010E944100DC01CB01F8017C
:1026E000918380831FC0FE01E45BFF4F88EC90E084
:1026F00091838083FE01E45BFF4F8081918101978C
:10270000F1F7FE01E45BFF4F91838083DE01A25B62
:10271000BF4FFE01E25BFF4F8081918101971196CF
:102720009C938E93FE01E25BFF4F80819181009725
:10273000D1F64BC08E01025B1F4FFE01E05BFF4FE5
:1027400060817181828193810E944100DC01CB0113
:10275000F80191838083DE01A65BBF4FFE01E25B3F
:10276000FF4F8081918111969C938E93FE01E65BD1
:10277000FF4F808191810197F1F7FE01E65BFF4FEA
:102780009183808322C08E01085A1F4FFE01E75AB1
:10279000FF4F60817181828193810E944100DC0141
:1027A000CB01F8018083DE01A75BBF4FFE01E85A31
:1027B000FF4F80818C93FE01E75BFF4F80818A95FC
:1027C000F1F7FE01E75BFF4F808380E060E00E944D
:1027D000580881E060E00E94580882E061E00E94B1
:1027E000580883E060E00E945808FE01EB5BFF4F51
:1027F00080E090E8A2EAB4E480839183A283B3836B
:102800008E010F5B1F4FFE01EB5BFF4F60817181FB
:10281000828193812BEA3AEA4AE250E40E9417024D
:10282000DC01CB01F80180839183A283B383FE0195
:10283000EF5BFF4F608171818281938120E030E006
:1028400040E85FE30E941D04882334F481E0FE0128
:10285000E05CFF4F80839DC0FE01EF5BFF4F608116
:1028600071818281938120E030E04FE753E40E9440
:10287000BD0318160CF07EC0FE01EB5BFF4F6081BC
:1028800071818281938120E030E04AE754E40E9424
:102890001103DC01CB018CAF9DAFAEAFBFAF6CAD10
:1028A0007DAD8EAD9FAD20E030E04AEF54E40E9454
:1028B0001702DC01CB0188AF99AFAAAFBBAF68ADFF
:1028C00079AD8AAD9BAD20E030E040E85FE30E9447
:1028D0001D0488232CF481E090E09FAB8EAB3FC0B9
:1028E00068AD79AD8AAD9BAD20E03FEF4FE757E48F
:1028F0000E94BD0318164CF56CAD7DAD8EAD9FAD3D
:1029000020E030E040E251E40E941702DC01CB01FC
:10291000BC01CD010E944100DC01CB019FAB8EAB1D
:102920000FC088EC90E09DAB8CAB8CA99DA9019762
:10293000F1F79DAB8CAB8EA99FA901979FAB8EAB96
:102940008EA99FA9009769F72DC068AD79AD8AADB2
:102950009BAD0E944100DC01CB019FAB8EAB8EA9E9
:102960009FA99BAB8AAB8AA99BA90197F1F79BAB67
:102970008AAB18C0FE01EF5BFF4F608171818281DD
:1029800093810E944100DC01CB01FE01E05CFF4F1E
:102990008083FE01E05CFF4F808189AB89A98A9525
:1029A000F1F789AB80E060E00E94580881E061E0C7
:1029B0000E94580882E060E00E94580883E060E0CE
:1029C0000E94580880E090E8A2EAB4E48DA79EA790
:1029D000AFA7B8AB6DA57EA58FA598A92BEA3AEA5B
:1029E0004AE250E40E941702DC01CB0189A79AA7B2
:1029F000ABA7BCA769A57AA58BA59CA520E030E074
:102A000040E85FE30E941D0488231CF481E088A74E
:102A100091C069A57AA58BA59CA520E030E04FE781
:102A200053E40E94BD0318160CF07BC06DA57EA573
:102A30008FA598A920E030E04AE754E40E941103F2
:102A4000DC01CB018CA39DA3AEA3BFA36CA17DA190
:102A50008EA19FA120E030E04AEF54E40E941702CB
:102A6000DC01CB0188A399A3AAA3BBA368A179A188
:102A70008AA19BA120E030E040E85FE30E941D04B2
:102A800088232CF481E090E09F8F8E8F3FC068A157
:102A900079A18AA19BA120E03FEF4FE757E40E9474
:102AA000BD0318164CF56CA17DA18EA19FA120E05D
:102AB00030E040E251E40E941702DC01CB01BC018E
:102AC000CD010E944100DC01CB019F8F8E8F0FC092
:102AD00088EC90E09D8F8C8F8C8D9D8D0197F1F708
:102AE0009D8F8C8F8E8D9F8D01979F8F8E8F8E8D5A
:102AF0009F8D009769F724C068A179A18AA19BA145
:102B00000E944100DC01CB019F8F8E8F8E8D9F8DA7
:102B10009B8F8A8F8A8D9B8D0197F1F79B8F8A8F70
:102B20000FC069A57AA58BA59CA50E944100DC0178
:102B3000CB0188A788A5898F898D8A95F1F7898F20
:102B400080E061E00E94580881E060E00E9458083F
:102B500082E060E00E94580883E060E00E9458082C
:102B600080E090E8A2EAB4E48D8B9E8BAF8BB88FA7
:102B70006D897E898F89988D2BEA3AEA4AE250E482
:102B80000E941702DC01CB01898B9A8BAB8BBC8B2B
:102B900069897A898B899C8920E030E040E85FE38D
:102BA0000E941D0488231CF481E0888B91C06989F0
:102BB0007A898B899C8920E030E04FE753E40E94BA
:102BC000BD0318160CF07BC06D897E898F89988DA6
:102BD00020E030E04AE754E40E941103DC01CB011D
:102BE0008C879D87AE87BF876C857D858E859F8509
:102BF00020E030E04AEF54E40E941702DC01CB01F0
:102C000088879987AA87BB87688579858A859B8508
:102C100020E030E040E85FE30E941D0488232CF4AC
:102C200081E090E09F838E833FC0688579858A85A7
:102C30009B8520E03FEF4FE757E40E94BD03181645
:102C40004CF56C857D858E859F8520E030E040E2E7
:102C500051E40E941702DC01CB01BC01CD010E94AE
:102C60004100DC01CB019F838E830FC088EC90E094
:102C70009D838C838C819D810197F1F79D838C834B
:102C80008E819F8101979F838E838E819F81009784
:102C900069F724C0688579858A859B850E944100F3
:102CA000DC01CB019F838E838E819F819B838A83EE
:102CB0008A819B810197F1F79B838A830FC0698981
:102CC0007A898B899C890E944100DC01CB01888B29
:102CD0008889898389818A95F1F78983DE01AF59D3
:102CE000BF4FFE01EF59FF4F8081918101968D9377
:102CF0009C93FE01EF59FF4F80819181CC01A0E0B0
:102D0000B0E0BC01CD010E94FF047B018C01FE01FB
:102D1000ED59FF4F80819181CC01A0E0B0E0BC0172
:102D2000CD010E94FF04DC01CB01BC01CD012FE8E5
:102D300032EC45EB5FE30E941702DC01CB019C0102
:102D4000AD01C801B7010E941D0488230CF404CC16
:102D5000CC59DF4F0FB6F894DEBF0FBECDBFCF9179
:102D6000DF911F910F91FF90EF9008950F931F93A4
:102D7000DF93CF93CDB7DEB7C056D0400FB6F894EF
:102D8000DEBF0FBECDBF80E060E00E94580881E04A
:102D900060E00E94580882E060E00E94580883E0EA
:102DA00061E00E945808FE01E35AFF4F80E090E87E
:102DB000A2EAB4E480839183A283B3838E01075A8D
:102DC0001F4FFE01E35AFF4F608171818281938121
:102DD0002BEA3AEA4AE250E40E941702DC01CB01F6
:102DE000F80180839183A283B383FE01E75AFF4FEA
:102DF000608171818281938120E030E040E85FE36F
:102E00000E941D04882334F4FE01E85AFF4F81E03C
:102E10008083E0C0FE01E75AFF4F608171818281AB
:102E2000938120E030E04FE753E40E94BD03181681
:102E30000CF0C0C0FE01E35AFF4F608171818281B6
:102E4000938120E030E04AE754E40E941103DC0162
:102E5000CB01FE01EC5AFF4F80839183A283B383A1
:102E60008E01005B1F4FFE01EC5AFF4F60817181A4
:102E70008281938120E030E04AEF54E40E941702FF
:102E8000DC01CB01F80180839183A283B383FE012F
:102E9000E05BFF4F608171818281938120E030E0AF
:102EA00040E85FE30E941D04882344F4FE01E25BD6
:102EB000FF4F81E090E09183808364C0FE01E05B7E
:102EC000FF4F608171818281938120E03FEF4FE766
:102ED00057E40E94BD0318160CF043C0FE01EC5AE3
:102EE000FF4F608171818281938120E030E040E278
:102EF00051E40E941702DC01CB018E01025B1F4FDF
:102F0000BC01CD010E944100DC01CB01F80191839D
:102F100080831FC0FE01E45BFF4F88EC90E091834B
:102F20008083FE01E45BFF4F808191810197F1F77F
:102F3000FE01E45BFF4F91838083DE01A25BBF4F04
:102F4000FE01E25BFF4F80819181019711969C9376
:102F50008E93FE01E25BFF4F808191810097D1F655
:102F60004BC08E01025B1F4FFE01E05BFF4F608193
:102F70007181828193810E944100DC01CB01F801C3
:102F800091838083DE01A65BBF4FFE01E25BFF4FB2
:102F90008081918111969C938E93FE01E65BFF4F99
:102FA000808191810197F1F7FE01E65BFF4F9183EC
:102FB000808322C08E01085A1F4FFE01E75AFF4F3F
:102FC00060817181828193810E944100DC01CB018B
:102FD000F8018083DE01A75BBF4FFE01E85AFF4F77
:102FE00080818C93FE01E75BFF4F80818A95F1F72A
:102FF000FE01E75BFF4F808380E060E00E9458089D
:1030000081E060E00E94580882E061E00E94580878
:1030100083E060E00E945808FE01EB5BFF4F80E018
:1030200090E8A2EAB4E480839183A283B3838E0103
:103030000F5B1F4FFE01EB5BFF4F6081718182814F
:1030400093812BEA3AEA4AE250E40E941702DC013B
:10305000CB01F80180839183A283B383FE01EF5BF0
:10306000FF4F608171818281938120E030E040E8F0
:103070005FE30E941D04882334F481E0FE01E05CDC
:10308000FF4F80839DC0FE01EF5BFF4F6081718128
:103090008281938120E030E04FE753E40E94BD033A
:1030A00018160CF07EC0FE01EB5BFF4F6081718152
:1030B0008281938120E030E04AE754E40E941103CA
:1030C000DC01CB018CAF9DAFAEAFBFAF6CAD7DADC2
:1030D0008EAD9FAD20E030E04AEF54E40E9417022D
:1030E000DC01CB0188AF99AFAAAFBBAF68AD79ADBA
:1030F0008AAD9BAD20E030E040E85FE30E941D0414
:1031000088232CF481E090E09FAB8EAB3FC068AD8C
:1031100079AD8AAD9BAD20E03FEF4FE757E40E94C9
:10312000BD0318164CF56CAD7DAD8EAD9FAD20E0A6
:1031300030E040E251E40E941702DC01CB01BC0107
:10314000CD010E944100DC01CB019FAB8EAB0FC0D3
:1031500088EC90E09DAB8CAB8CA99DA90197F1F711
:103160009DAB8CAB8EA99FA901979FAB8EAB8EA90F
:103170009FA9009769F72DC068AD79AD8AAD9BAD69
:103180000E944100DC01CB019FAB8EAB8EA99FA9B1
:103190009BAB8AAB8AA99BA90197F1F79BAB8AAB42
:1031A00018C0FE01EF5BFF4F6081718182819381C6
:1031B0000E944100DC01CB01FE01E05CFF4F8083F7
:1031C000FE01E05CFF4F808189AB89A98A95F1F708
:1031D00089AB80E060E00E94580881E061E00E94D5
:1031E000580882E060E00E94580883E060E00E9496
:1031F000580880E090E8A2EAB4E48DA79EA7AFA7A4
:10320000B8AB6DA57EA58FA598A92BEA3AEA4AE24C
:1032100050E40E941702DC01CB0189A79AA7ABA753
:10322000BCA769A57AA58BA59CA520E030E040E865
:103230005FE30E941D0488231CF481E088A791C0ED
:1032400069A57AA58BA59CA520E030E04FE753E463
:103250000E94BD0318160CF07BC06DA57EA58FA53E
:1032600098A920E030E04AE754E40E941103DC0111
:10327000CB018CA39DA3AEA3BFA36CA17DA18EA106
:103280009FA120E030E04AEF54E40E941702DC01E5
:10329000CB0188A399A3AAA3BBA368A179A18AA102
:1032A0009BA120E030E040E85FE30E941D048823FA
:1032B0002CF481E090E09F8F8E8F3FC068A179A1B0
:1032C0008AA19BA120E03FEF4FE757E40E94BD0396
:1032D00018164CF56CA17DA18EA19FA120E030E0D5
:1032E00040E251E40E941702DC01CB01BC01CD0198
:1032F0000E944100DC01CB019F8F8E8F0FC088ECB4
:1033000090E09D8F8C8F8C8D9D8D0197F1F79D8F17
:103310008C8F8E8D9F8D01979F8F8E8F8E8D9F8D21
:10332000009769F724C068A179A18AA19BA10E9496
:103330004100DC01CB019F8F8E8F8E8D9F8D9B8FE7
:103340008A8F8A8D9B8D0197F1F79B8F8A8F0FC093
:1033500069A57AA58BA59CA50E944100DC01CB0143
:1033600088A788A5898F898D8A95F1F7898F80E054
:1033700061E00E94580881E060E00E94580882E005
:1033800060E00E94580883E060E00E94580880E0F6
:1033900090E8A2EAB4E48D8B9E8BAF8BB88F6D89D9
:1033A0007E898F89988D2BEA3AEA4AE250E40E949E
:1033B0001702DC01CB01898B9A8BAB8BBC8B6989A3
:1033C0007A898B899C8920E030E040E85FE30E94A5
:1033D0001D0488231CF481E0888B91C069897A8957
:1033E0008B899C8920E030E04FE753E40E94BD03C5
:1033F00018160CF07BC06D897E898F89988D20E02E
:1034000030E04AE754E40E941103DC01CB018C87D1
:103410009D87AE87BF876C857D858E859F8520E0E3
:1034200030E04AEF54E40E941702DC01CB018887A8
:103430009987AA87BB87688579858A859B8520E0DF
:1034400030E040E85FE30E941D0488232CF481E013
:1034500090E09F838E833FC0688579858A859B85B0
:1034600020E03FEF4FE757E40E94BD0318164CF5EC
:103470006C857D858E859F8520E030E040E251E4BB
:103480000E941702DC01CB01BC01CD010E9441006A
:10349000DC01CB019F838E830FC088EC90E09D837D
:1034A0008C838C819D810197F1F79D838C838E8124
:1034B0009F8101979F838E838E819F81009769F7FB
:1034C00024C0688579858A859B850E944100DC013E
:1034D000CB019F838E838E819F819B838A838A8188
:1034E0009B810197F1F79B838A830FC069897A8951
:1034F0008B899C890E944100DC01CB01888B8889E3
:10350000898389818A95F1F78983C05ADF4F0FB685
:10351000F894DEBF0FBECDBFCF91DF911F910F9109
:1035200008950F931F93DF93CF93CDB7DEB7C056A7
:10353000D0400FB6F894DEBF0FBECDBF80E061E093
:103540000E94580881E060E00E94580882E060E034
:103550000E94580883E060E00E945808FE01E35A88
:10356000FF4F80E090E8A2EAB4E480839183A283D5
:10357000B3838E01075A1F4FFE01E35AFF4F60814C
:103580007181828193812BEA3AEA4AE250E40E94F7
:103590001702DC01CB01F80180839183A283B383FE
:1035A000FE01E75AFF4F608171818281938120E0A3
:1035B00030E040E85FE30E941D04882334F4FE01FC
:1035C000E85AFF4F81E08083E0C0FE01E75AFF4FD9
:1035D000608171818281938120E030E04FE753E484
:1035E0000E94BD0318160CF0C0C0FE01E35AFF4F45
:1035F000608171818281938120E030E04AE754E468
:103600000E941103DC01CB01FE01EC5AFF4F8083C5
:103610009183A283B3838E01005B1F4FFE01EC5A9E
:10362000FF4F608171818281938120E030E04AEF19
:1036300054E40E941702DC01CB01F80180839183DE
:10364000A283B383FE01E05BFF4F608171818281C1
:10365000938120E030E040E85FE30E941D0488236E
:1036600044F4FE01E25BFF4F81E090E091838083B0
:1036700064C0FE01E05BFF4F6081718182819381B4
:1036800020E03FEF4FE757E40E94BD0318160CF00F
:1036900043C0FE01EC5AFF4F6081718182819381AA
:1036A00020E030E040E251E40E941702DC01CB014F
:1036B0008E01025B1F4FBC01CD010E944100DC0165
:1036C000CB01F801918380831FC0FE01E45BFF4FB3
:1036D00088EC90E091838083FE01E45BFF4F808162
:1036E00091810197F1F7FE01E45BFF4F91838083A5
:1036F000DE01A25BBF4FFE01E25BFF4F8081918143
:10370000019711969C938E93FE01E25BFF4F80819F
:1037100091810097D1F64BC08E01025B1F4FFE01D5
:10372000E05BFF4F60817181828193810E94410043
:10373000DC01CB01F80191838083DE01A65BBF4FE2
:10374000FE01E25BFF4F8081918111969C938E93E5
:10375000FE01E65BFF4F808191810197F1F7FE0149
:10376000E65BFF4F9183808322C08E01085A1F4F72
:10377000FE01E75AFF4F60817181828193810E942F
:103780004100DC01CB01F8018083DE01A75BBF4F64
:10379000FE01E85AFF4F80818C93FE01E75BFF4FEB
:1037A00080818A95F1F7FE01E75BFF4F808380E01F
:1037B00060E00E94580881E061E00E94580882E0C1
:1037C00060E00E94580883E060E00E945808FE0113
:1037D000EB5BFF4F80E090E8A2EAB4E48083918342
:1037E000A283B3838E010F5B1F4FFE01EB5BFF4F84
:1037F00060817181828193812BEA3AEA4AE250E446
:103800000E941702DC01CB01F80180839183A2831F
:10381000B383FE01EF5BFF4F6081718182819381F1
:1038200020E030E040E85FE30E941D04882334F488
:1038300081E0FE01E05CFF4F80839DC0FE01EF5BF5
:10384000FF4F608171818281938120E030E04FE7FA
:1038500053E40E94BD0318160CF07EC0FE01EB5B22
:10386000FF4F608171818281938120E030E04AE7DF
:1038700054E40E941103DC01CB018CAF9DAFAEAFCD
:10388000BFAF6CAD7DAD8EAD9FAD20E030E04AEFB7
:1038900054E40E941702DC01CB0188AF99AFAAAFB4
:1038A000BBAF68AD79AD8AAD9BAD20E030E040E8BC
:1038B0005FE30E941D0488232CF481E090E09FAB1D
:1038C0008EAB3FC068AD79AD8AAD9BAD20E03FEFD8
:1038D0004FE757E40E94BD0318164CF56CAD7DAD63
:1038E0008EAD9FAD20E030E040E251E40E9417022F
:1038F000DC01CB01BC01CD010E944100DC01CB0108
:103900009FAB8EAB0FC088EC90E09DAB8CAB8CA9CD
:103910009DA90197F1F79DAB8CAB8EA99FA901974B
:103920009FAB8EAB8EA99FA9009769F72DC068AD9C
:1039300079AD8AAD9BAD0E944100DC01CB019FAB0C
:103940008EAB8EA99FA99BAB8AAB8AA99BA9019735
:10395000F1F79BAB8AAB18C0FE01EF5BFF4F6081B4
:103960007181828193810E944100DC01CB01FE01C3
:10397000E05CFF4F8083FE01E05CFF4F808189ABFC
:1039800089A98A95F1F789AB80E060E00E94580828
:1039900081E060E00E94580882E061E00E945808DF
:1039A00083E060E00E94580880E090E8A2EAB4E476
:1039B0008DA79EA7AFA7B8AB6DA57EA58FA598A92B
:1039C0002BEA3AEA4AE250E40E941702DC01CB01FA
:1039D00089A79AA7ABA7BCA769A57AA58BA59CA523
:1039E00020E030E040E85FE30E941D0488231CF4DF
:1039F00081E088A791C069A57AA58BA59CA520E048
:103A000030E04FE753E40E94BD0318160CF07BC072
:103A10006DA57EA58FA598A920E030E04AE754E483
:103A20000E941103DC01CB018CA39DA3AEA3BFA315
:103A30006CA17DA18EA19FA120E030E04AEF54E46B
:103A40000E941702DC01CB0188A399A3AAA3BBA300
:103A500068A179A18AA19BA120E030E040E85FE362
:103A60000E941D0488232CF481E090E09F8F8E8FAC
:103A70003FC068A179A18AA19BA120E03FEF4FE759
:103A800057E40E94BD0318164CF56CA17DA18EA1D0
:103A90009FA120E030E040E251E40E941702DC01E7
:103AA000CB01BC01CD010E944100DC01CB019F8F05
:103AB0008E8F0FC088EC90E09D8F8C8F8C8D9D8DAC
:103AC0000197F1F79D8F8C8F8E8D9F8D01979F8F22
:103AD0008E8F8E8D9F8D009769F724C068A179A184
:103AE0008AA19BA10E944100DC01CB019F8F8E8F98
:103AF0008E8D9F8D9B8F8A8F8A8D9B8D0197F1F77D
:103B00009B8F8A8F0FC069A57AA58BA59CA50E9463
:103B10004100DC01CB0188A788A5898F898D8A9512
:103B2000F1F7898F80E060E00E94580881E060E052
:103B30000E94580882E060E00E94580883E061E03B
:103B40000E94580880E090E8A2EAB4E48D8B9E8B36
:103B5000AF8BB88F6D897E898F89988D2BEA3AEA71
:103B60004AE250E40E941702DC01CB01898B9A8B58
:103B7000AB8BBC8B69897A898B899C8920E030E08A
:103B800040E85FE30E941D0488231CF481E0888BD9
:103B900091C069897A898B899C8920E030E04FE760
:103BA00053E40E94BD0318160CF07BC06D897E891A
:103BB0008F89988D20E030E04AE754E40E94110399
:103BC000DC01CB018C879D87AE87BF876C857D85A7
:103BD0008E859F8520E030E04AEF54E40E94170272
:103BE000DC01CB0188879987AA87BB87688579859F
:103BF0008A859B8520E030E040E85FE30E941D0459
:103C000088232CF481E090E09F838E833FC06885F9
:103C100079858A859B8520E03FEF4FE757E40E9436
:103C2000BD0318164CF56C857D858E859F8520E03B
:103C300030E040E251E40E941702DC01CB01BC01FC
:103C4000CD010E944100DC01CB019F838E830FC018
:103C500088EC90E09D838C838C819D810197F1F7A6
:103C60009D838C838E819F8101979F838E838E811C
:103C70009F81009769F724C0688579858A859B852F
:103C80000E944100DC01CB019F838E838E819F8146
:103C90009B838A838A819B810197F1F79B838A8327
:103CA0000FC069897A898B899C890E944100DC0157
:103CB000CB01888B8889898389818A95F1F78983EB
:103CC000C05ADF4F0FB6F894DEBF0FBECDBFCF9105
:103CD000DF911F910F910895DF93CF93CDB7DEB79A
:103CE00080E060E00E94580881E060E00E9458088F
:103CF00082E060E00E94580883E060E00E9458087B
:103D0000CF91DF910895DF93CF93CDB7DEB780E0F9
:103D100061E00E946D0781E061E00E946D0782E032
:103D200061E00E946D0783E061E00E946D07CF9122
:103D3000DF910895DF93CF93CDB7DEB76E970FB6BF
:103D4000F894DEBF0FBECDBF8D8F6E8F8EE061E029
:103D50000E9458088D8D282F30E088EE93E0AC014A
:103D6000249FC001259F900D349F900D1124AA27F8
:103D700097FDA095BA2FBC01CD010E944D04DC0136
:103D8000CB01898F9A8FAB8FBC8F698D7A8D8B8D8C
:103D90009C8D20E030E04AEF54E40E941702DC01E1
:103DA000CB018D8B9E8BAF8BB88F6D897E898F8970
:103DB000988D20E030E040E85FE30E941D048823F6
:103DC0002CF481E090E09C8B8B8B3FC06D897E89C9
:103DD0008F89988D20E03FEF4FE757E40E94BD03A5
:103DE00018164CF5698D7A8D8B8D9C8D20E030E016
:103DF00040E251E40E941702DC01CB01BC01CD017D
:103E00000E944100DC01CB019C8B8B8B0FC088ECA6
:103E100090E09A8B898B89899A890197F1F79A8B1F
:103E2000898B8B899C8901979C8B8B8B8B899C8937
:103E3000009769F714C06D897E898F89988D0E94DB
:103E40004100DC01CB019C8B8B8B8B899C89988BEF
:103E50008F878F8598890197F1F7988B8F878EE0F0
:103E600060E00E9458088E8D282F30E088EE93E0A5
:103E7000AC01249FC001259F900D349F900D11240B
:103E8000AA2797FDA095BA2FBC01CD010E944D0431
:103E9000DC01CB018B879C87AD87BE876B857C85DA
:103EA0008D859E8520E030E04AEF54E40E941702A1
:103EB000DC01CB018F839887A987BA876F817885CA
:103EC00089859A8520E030E040E85FE30E941D0488
:103ED00088232CF481E090E09E838D833FC06F8126
:103EE000788589859A8520E03FEF4FE757E40E9467
:103EF000BD0318164CF56B857C858D859E8520E06D
:103F000030E040E251E40E941702DC01CB01BC0129
:103F1000CD010E944100DC01CB019E838D830FC047
:103F200088EC90E09C838B838B819C810197F1F7D7
:103F30009C838B838D819E8101979E838D838D8150
:103F40009E81009769F714C06F81788589859A856D
:103F50000E944100DC01CB019E838D838D819E8177
:103F60009A83898389819A810197F1F79A8389835A
:103F70006E960FB6F894DEBF0FBECDBFCF91DF9126
:103F80000895DF93CF93CDB7DEB7C755D0400FB6B6
:103F9000F894DEBF0FBECDBF0E9443090E94831E6E
:103FA0008EE061E00E946D0718861E82AAC10E9401
:103FB000D00CCE010C9626969FAF8EAF2697E0E6EA
:103FC000F0E02896FFAFEEAF2897F8E02996FFAF14
:103FD00029972896EEADFFAD2897008028968EADE4
:103FE0009FAD2897019628969FAF8EAF289726966B
:103FF000EEADFFAD2697008226968EAD9FAD26973B
:10400000019626969FAF8EAF269729969FAD29974A
:10401000915029969FAF29972996EFAD2997EE23C6
:10402000C1F61C820EC08C81282F30E0CE010C9688
:10403000FC01E20FF31F80810E94F10B8C818F5FE6
:104040008C838C81873078F388E80E94120B1D8264
:104050001AC00E946D0A8F838F81833219F484E025
:104060008D830EC08F81805D0E94F10B8D81282F82
:1040700030E0CE010996FC01E20FF31F8F818083AF
:104080008D818F5F8D838D81843018F303C00E94F2
:104090006D0A8F838F818332D1F78985882389F4D4
:1040A0008A85882371F48B85882359F48C8588232D
:1040B00041F4188680E00E94D1218E818F5F8E832B
:1040C0007CC08985813089F48A85813071F48B8543
:1040D000813059F48C85813041F4188681E00E944A
:1040E000D1218E818F5F8E8368C08985823089F46B
:1040F0008A85823071F48B85823059F48C858230C8
:1041000041F4188682E00E94D1218E818F5F8E83D8
:1041100054C00E94D00CCE0144962B969FAF8EAF18
:104120002B97E8E6F0E02D96FFAFEEAF2D97F0E18C
:104130002E96FFAF2E972D96EEADFFAD2D970080FA
:104140002D968EAD9FAD2D9701962D969FAF8EAF7C
:104150002D972B96EEADFFAD2B9700822B968EAD53
:104160009FAD2B9701962B969FAF8EAF2B972E96D8
:104170009FAD2E9791502E969FAF2E972E96EFAD16
:104180002E97EE23C1F61B820EC08B81282F30E0C4
:10419000CE014496FC01E20FF31F80810E94F10BD7
:1041A0008B818F5F8B838B818F3078F382E060E02F
:1041B0000E949A1E88858F5F88878885833009F0E2
:1041C000A0C00E94D00CCE01849660969FAF8EAFA7
:1041D0006097E8E7F0E06296FFAFEEAF6297F3E139
:1041E0006396FFAF63976296EEADFFAD6297008076
:1041F00062968EAD9FAD6297019662969FAF8EAF2D
:1042000062976096EEADFFAD6097008260968EADCE
:104210009FAD6097019660969FAF8EAF6097639653
:104220009FAD6397915063969FAF63976396EFAD91
:104230006397EE23C1F61A820EC08A81282F30E0E0
:10424000CE018496FC01E20FF31F80810E94F10BE6
:104250008A818F5F8A838A81823178F380EC0E9421
:10426000120BCE01C79665969FAF8EAF6597EBE8B0
:10427000F0E06796FFAFEEAF6797FDE06896FFAF9F
:1042800068976796EEADFFAD6797008067968EAD35
:104290009FAD6797019667969FAF8EAF67976596BC
:1042A000EEADFFAD6597008265968EAD9FAD6597CB
:1042B000019665969FAF8EAF659768969FAD68979C
:1042C000915068969FAF68976896EFAD6897EE2318
:1042D000C1F619820EC08981282F30E0CE01C79621
:1042E000FC01E20FF31F80810E94F10B89818F5F37
:1042F000898389818C3078F382E061E00E949A1E84
:10430000FBCF8E81882309F452CE4ECEDF93CF931C
:10431000CDB7DEB72E970FB6F894DEBF0FBECDBF78
:104320000E94D00C85E80E94120BCE0102969B875A
:104330008A87E8E9F0E0FD87EC87F8E0FE87EC8506
:10434000FD8500808C859D8501969D878C87EA85FB
:10435000FB8500828A859B8501969B878A879E853F
:1043600091509E87EE85EE2351F719820EC0898108
:10437000282F30E0CE010296FC01E20FF31F80816E
:104380000E94F10B89818F5F89838981873078F35F
:104390002E960FB6F894DEBF0FBECDBFCF91DF9142
:1043A0000895DF93CF93CDB7DEB7C458D0400FB692
:1043B000F894DEBF0FBECDBFFE01E059FF4F8083F2
:1043C0001BAA18AA6AC380EC8FA709C08FA50E94F8
:1043D000120B80E20E94F10B8FA58F5F8FA78FA534
:1043E000803DA0F380EC0E94120BCE01C796E396AD
:1043F0009FAF8EAFE397E0EAF0E0E596FFAFEEAF58
:10440000E597FAE0E696FFAFE697E596EEADFFADED
:10441000E5970080E5968EAD9FADE5970196E59610
:104420009FAF8EAFE597E396EEADFFADE3970082C9
:10443000E3968EAD9FADE3970196E3969FAF8EAF67
:10444000E397E6969FADE6979150E6969FAFE69785
:10445000E696EFADE697EE23C1F61EA60EC08EA53A
:10446000282F30E0CE01C796FC01E20FF31F8081B8
:104470000E94F10B8EA58F5F8EA78EA5893078F3F1
:1044800019AA1AC00E946D0A8AAB8AA9833219F44C
:1044900084E089AB0EC08AA9805D0E94F10B89A9D6
:1044A000282F30E0CE01C496FC01E20FF31F8AA949
:1044B000808389A98F5F89AB89A9843018F303C0F1
:1044C0000E946D0A8AAB8AA98332D1F78CA988230E
:1044D00009F094C08DA9882309F090C08EA9882383
:1044E00009F08CC08FA9882309F088C0FE01E0592B
:1044F000FF4F8081882309F081C00E94862184EBD0
:1045000090E00E946E0E80E090E0AAE7B4E48FA3F2
:1045100098A7A9A7BAA76FA178A589A59AA520E011
:1045200030E04AEF54E40E941702DC01CB018BA378
:104530009CA3ADA3BEA36BA17CA18DA19EA120E0F5
:1045400030E040E85FE30E941D0488232CF481E002
:1045500090E09AA389A33FC06BA17CA18DA19EA1ED
:1045600020E03FEF4FE757E40E94BD0318164CF5DB
:104570006FA178A589A59AA520E030E040E251E43A
:104580000E941702DC01CB01BC01CD010E94410059
:10459000DC01CB019AA389A30FC088EC90E098A31B
:1045A0008F8F8F8D98A10197F1F798A38F8F89A195
:1045B0009AA101979AA389A389A19AA1009769F763
:1045C00014C06BA17CA18DA19EA10E944100DC01C1
:1045D000CB019AA389A389A19AA19E8F8D8F8D8DDE
:1045E0009E8D0197F1F79E8F8D8F84EB90E00E9456
:1045F00092121BAA88A98F5F88AB87C18CA98130D2
:1046000009F094C08DA9813009F090C08EA9813045
:1046100009F08CC08FA9813009F088C0FE01E059F3
:10462000FF4F8081813009F081C00E94862184EB98
:1046300090E00E946E0E80E090E0AAE7B4E4898FDB
:104640009A8FAB8FBC8F698D7A8D8B8D9C8D20E07E
:1046500030E04AEF54E40E941702DC01CB018D8B5D
:104660009E8BAF8BB88F6D897E898F89988D20E066
:1046700030E040E85FE30E941D0488232CF481E0D1
:1046800090E09C8B8B8B3FC06D897E898F89988D44
:1046900020E03FEF4FE757E40E94BD0318164CF5AA
:1046A000698D7A8D8B8D9C8D20E030E040E251E465
:1046B0000E941702DC01CB01BC01CD010E94410028
:1046C000DC01CB019C8B8B8B0FC088EC90E09A8B2C
:1046D000898B89899A890197F1F79A8B898B8B89C4
:1046E0009C8901979C8B8B8B8B899C89009769F7A0
:1046F00014C06D897E898F89988D0E944100DC01EC
:10470000CB019C8B8B8B8B899C89988B8F878F851A
:1047100098890197F1F7988B8F8784EB90E00E943E
:1047200092121BAA88A98F5F88ABEFC08CA9823038
:1047300009F094C08DA9823009F090C08EA9823012
:1047400009F08CC08FA9823009F088C0FE01E059C1
:10475000FF4F8081823009F081C00E94862184EB66
:1047600090E00E946E0E80E090E0AAE7B4E48B87B0
:104770009C87AD87BE876B857C858D859E8520E077
:1047800030E04AEF54E40E941702DC01CB018F8332
:104790009887A987BA876F81788589859A8520E06F
:1047A00030E040E85FE30E941D0488232CF481E0A0
:1047B00090E09E838D833FC06F81788589859A853F
:1047C00020E03FEF4FE757E40E94BD0318164CF579
:1047D0006B857C858D859E8520E030E040E251E44C
:1047E0000E941702DC01CB01BC01CD010E944100F7
:1047F000DC01CB019E838D830FC088EC90E09C830D
:104800008B838B819C810197F1F79C838B838D81B6
:104810009E8101979E838D838D819E81009769F78C
:1048200014C06F81788589859A850E944100DC01DA
:10483000CB019E838D838D819E819A83898389811B
:104840009A810197F1F79A83898384EB90E00E9423
:1048500092121BAA88A98F5F88AB57C080EC0E9478
:10486000120BCE018F5B9F4FE8969FAF8EAFE897FC
:10487000EAEAF0E0EA96FFAFEEAFEA97F1E1EB96F5
:10488000FFAFEB97EA96EEADFFADEA970080EA96B0
:104890008EAD9FADEA970196EA969FAF8EAFEA97ED
:1048A000E896EEADFFADE8970082E8968EAD9FAD3D
:1048B000E8970196E8969FAF8EAFE897EB969FAD8D
:1048C000EB979150EB969FAFEB97EB96EFADEB9795
:1048D000EE23C1F61DA60FC08DA5282F30E0CE0116
:1048E0008F5B9F4FFC01E20FF31F80810E94F10B51
:1048F0008DA58F5F8DA78DA5803170F383E060E07B
:104900000E949A1E8BA98F5F8BAB8BA9833009F015
:10491000C4C00E94D00CCE018E5A9F4FED969FAF1F
:104920008EAFED978BEB90E0EF969FAF8EAFEF974A
:1049300091E1C158DF4F9883CF57D040EF96EEAD4D
:10494000FFADEF970080EF968EAD9FADEF9701968C
:10495000EF969FAF8EAFEF97ED96EEADFFADED9773
:104960000082ED968EAD9FADED970196ED969FAFCF
:104970008EAFED97C158DF4F9881CF57D0409150FF
:10498000C158DF4F9883CF57D040C158DF4FE881DF
:10499000CF57D040EE2391F61CA60FC08CA5282F30
:1049A00030E0CE018E5A9F4FFC01E20FF31F808151
:1049B0000E94F10B8CA58F5F8CA78CA5803170F3C2
:1049C00080EC0E94120BCE018D599F4FC058DF4FD3
:1049D00099838883C058D0408BE890E0CE57DF4F52
:1049E00099838883C258D0409DE0CC57DF4F98838D
:1049F000C458D040CE57DF4FE881F981C258D0402B
:104A00000080CE57DF4F88819981C258D0400196EF
:104A1000CE57DF4F99838883C258D040C058DF4FAC
:104A2000E881F981C058D0400082C058DF4F8881AA
:104A30009981C058D0400196C058DF4F9983888330
:104A4000C058D040CC57DF4F9881C458D0409150C7
:104A5000CC57DF4F9883C458D040CC57DF4FE88104
:104A6000C458D040EE2331F61BA60FC08BA5282FCB
:104A700030E0CE018D599F4FFC01E20FF31F808182
:104A80000E94F10B8BA58F5F8BA78BA58C3070F3E9
:104A900082E061E00E949A1EFBCF88A9882309F476
:104AA00092CCCC57DF4F0FB6F894DEBF0FBECDBF10
:104AB000CF91DF9108952F923F924F925F926F9224
:104AC0007F928F929F92AF92BF92CF92DF92EF929E
:104AD000FF920F931F93CF93DF93CDB7DEB7CA1B1F
:104AE000DB0B0FB6F894DEBF0FBECDBF09942A884A
:104AF000398848885F846E847D848C849B84AA84F2
:104B0000B984C884DF80EE80FD800C811B81AA817E
:104B1000B981CE0FD11D0FB6F894DEBF0FBECDBF49
:084B2000ED010895F894FFCFA8
:104B28005573657249443A00696E76616C69642010
:104B38007573657220494400696E76616C696420FA
:104B4800494420332074696D657300537973746523
:104B58006D20636C6F73650057656C636F6D6500DE
:104B680050617373776F72643A00496E76616C694D
:104B7800642050617373776F72640057726F6E6749
:104B880020505720332074696D65730000000000C1
:104B980000000000000102020303030304040404EC
:104BA80004040404050505050505050505050505B1
:104BB8000505050506060606060606060606060691
:104BC800060606060606060606060606060606067D
:104BD8000606060607070707070707070707070761
:104BE800070707070707070707070707070707074D
:104BF800070707070707070707070707070707073D
:104C0800070707070707070707070707070707072C
:104C18000707070708080808080808080808080810
:104C280008080808080808080808080808080808FC
:104C380008080808080808080808080808080808EC
:104C480008080808080808080808080808080808DC
:104C580008080808080808080808080808080808CC
:104C680008080808080808080808080808080808BC
:104C780008080808080808080808080808080808AC
:104C8800080808080808080808080808080808089C
:044C980008080808F8
:00000001FF
